{"abi":[{"type":"fallback","stateMutability":"payable"},{"type":"receive","stateMutability":"payable"},{"type":"function","name":"createPool","inputs":[],"outputs":[],"stateMutability":"nonpayable"},{"type":"function","name":"createProposal","inputs":[{"name":"_poolId","type":"uint256","internalType":"uint256"},{"name":"_title","type":"string","internalType":"string"},{"name":"_description","type":"string","internalType":"string"},{"name":"_imageLink","type":"string","internalType":"string"},{"name":"_fundingGoal","type":"uint256","internalType":"uint256"},{"name":"_durationSeconds","type":"uint256","internalType":"uint256"}],"outputs":[],"stateMutability":"nonpayable"},{"type":"function","name":"deposit","inputs":[{"name":"_poolId","type":"uint256","internalType":"uint256"}],"outputs":[],"stateMutability":"payable"},{"type":"function","name":"executeProposal","inputs":[{"name":"_proposalId","type":"uint256","internalType":"uint256"}],"outputs":[],"stateMutability":"nonpayable"},{"type":"function","name":"getHasVoted","inputs":[{"name":"_proposalId","type":"uint256","internalType":"uint256"},{"name":"_voter","type":"address","internalType":"address"}],"outputs":[{"name":"","type":"bool","internalType":"bool"}],"stateMutability":"view"},{"type":"function","name":"getPool","inputs":[{"name":"_poolId","type":"uint256","internalType":"uint256"}],"outputs":[{"name":"","type":"tuple","internalType":"struct CrowdfundingContract.Pool","components":[{"name":"id","type":"uint256","internalType":"uint256"},{"name":"creator","type":"address","internalType":"address"},{"name":"balance","type":"uint256","internalType":"uint256"},{"name":"exists","type":"bool","internalType":"bool"}]}],"stateMutability":"view"},{"type":"function","name":"getProposal","inputs":[{"name":"_proposalId","type":"uint256","internalType":"uint256"}],"outputs":[{"name":"","type":"tuple","internalType":"struct CrowdfundingContract.Proposal","components":[{"name":"id","type":"uint256","internalType":"uint256"},{"name":"poolId","type":"uint256","internalType":"uint256"},{"name":"proposer","type":"address","internalType":"address payable"},{"name":"title","type":"string","internalType":"string"},{"name":"description","type":"string","internalType":"string"},{"name":"imageLink","type":"string","internalType":"string"},{"name":"fundingGoal","type":"uint256","internalType":"uint256"},{"name":"votesFor","type":"uint256","internalType":"uint256"},{"name":"votesAgainst","type":"uint256","internalType":"uint256"},{"name":"deadline","type":"uint256","internalType":"uint256"},{"name":"executed","type":"bool","internalType":"bool"},{"name":"passed","type":"bool","internalType":"bool"},{"name":"exists","type":"bool","internalType":"bool"}]}],"stateMutability":"view"},{"type":"function","name":"pools","inputs":[{"name":"","type":"uint256","internalType":"uint256"}],"outputs":[{"name":"id","type":"uint256","internalType":"uint256"},{"name":"creator","type":"address","internalType":"address"},{"name":"balance","type":"uint256","internalType":"uint256"},{"name":"exists","type":"bool","internalType":"bool"}],"stateMutability":"view"},{"type":"function","name":"proposals","inputs":[{"name":"","type":"uint256","internalType":"uint256"}],"outputs":[{"name":"id","type":"uint256","internalType":"uint256"},{"name":"poolId","type":"uint256","internalType":"uint256"},{"name":"proposer","type":"address","internalType":"address payable"},{"name":"title","type":"string","internalType":"string"},{"name":"description","type":"string","internalType":"string"},{"name":"imageLink","type":"string","internalType":"string"},{"name":"fundingGoal","type":"uint256","internalType":"uint256"},{"name":"votesFor","type":"uint256","internalType":"uint256"},{"name":"votesAgainst","type":"uint256","internalType":"uint256"},{"name":"deadline","type":"uint256","internalType":"uint256"},{"name":"executed","type":"bool","internalType":"bool"},{"name":"passed","type":"bool","internalType":"bool"},{"name":"exists","type":"bool","internalType":"bool"}],"stateMutability":"view"},{"type":"function","name":"vote","inputs":[{"name":"_proposalId","type":"uint256","internalType":"uint256"},{"name":"_voteType","type":"bool","internalType":"bool"}],"outputs":[],"stateMutability":"nonpayable"},{"type":"event","name":"FundsDeposited","inputs":[{"name":"poolId","type":"uint256","indexed":true,"internalType":"uint256"},{"name":"depositor","type":"address","indexed":true,"internalType":"address"},{"name":"amount","type":"uint256","indexed":false,"internalType":"uint256"}],"anonymous":false},{"type":"event","name":"PoolCreated","inputs":[{"name":"poolId","type":"uint256","indexed":true,"internalType":"uint256"},{"name":"creator","type":"address","indexed":true,"internalType":"address"}],"anonymous":false},{"type":"event","name":"ProposalCreated","inputs":[{"name":"proposalId","type":"uint256","indexed":true,"internalType":"uint256"},{"name":"poolId","type":"uint256","indexed":true,"internalType":"uint256"},{"name":"proposer","type":"address","indexed":true,"internalType":"address"},{"name":"title","type":"string","indexed":false,"internalType":"string"},{"name":"fundingGoal","type":"uint256","indexed":false,"internalType":"uint256"},{"name":"deadline","type":"uint256","indexed":false,"internalType":"uint256"}],"anonymous":false},{"type":"event","name":"ProposalExecuted","inputs":[{"name":"proposalId","type":"uint256","indexed":true,"internalType":"uint256"},{"name":"passed","type":"bool","indexed":false,"internalType":"bool"},{"name":"fundsReleased","type":"bool","indexed":false,"internalType":"bool"}],"anonymous":false},{"type":"event","name":"Voted","inputs":[{"name":"proposalId","type":"uint256","indexed":true,"internalType":"uint256"},{"name":"voter","type":"address","indexed":true,"internalType":"address"},{"name":"voteType","type":"bool","indexed":false,"internalType":"bool"}],"anonymous":false},{"type":"error","name":"AlreadyVoted","inputs":[{"name":"proposalId","type":"uint256","internalType":"uint256"},{"name":"voter","type":"address","internalType":"address"}]},{"type":"error","name":"DeadlineNotPassed","inputs":[{"name":"proposalId","type":"uint256","internalType":"uint256"},{"name":"deadline","type":"uint256","internalType":"uint256"}]},{"type":"error","name":"DeadlinePassed","inputs":[{"name":"proposalId","type":"uint256","internalType":"uint256"}]},{"type":"error","name":"InvalidDuration","inputs":[]},{"type":"error","name":"PoolNotFound","inputs":[{"name":"poolId","type":"uint256","internalType":"uint256"}]},{"type":"error","name":"ProposalAlreadyExecuted","inputs":[{"name":"proposalId","type":"uint256","internalType":"uint256"}]},{"type":"error","name":"ProposalNotFound","inputs":[{"name":"proposalId","type":"uint256","internalType":"uint256"}]},{"type":"error","name":"TransferFailed","inputs":[{"name":"recipient","type":"address","internalType":"address"},{"name":"amount","type":"uint256","internalType":"uint256"}]},{"type":"error","name":"ZeroAddress","inputs":[]}],"bytecode":{"object":"0x608060405234601c57600e6020565b61212d61002b823961212d90f35b6026565b60405190565b5f80fdfe60806040526004361015610010575b005b61001a5f356100b9565b8063013cf08b146100b4578063068bcd8d146100af5780630d61b519146100aa5780636a0c5723146100a55780639a06b113146100a0578063ac4afa381461009b578063b6b55f2514610096578063bc2a032814610091578063c7f758a81461008c5763c9d27afe0361000e57610bda565b610b55565b6109bf565b610899565b610860565b610760565b61071b565b610683565b610649565b610574565b60e01c90565b60405190565b5f80fd5b5f80fd5b5f80fd5b90565b6100dd816100d1565b036100e457565b5f80fd5b905035906100f5826100d4565b565b906020828203126101105761010d915f016100e8565b90565b6100c9565b90565b61012c610127610131926100d1565b610115565b6100d1565b90565b9061013e90610118565b5f5260205260405f2090565b5f1c90565b90565b61015e6101639161014a565b61014f565b90565b6101709054610152565b90565b60018060a01b031690565b61018a61018f9161014a565b610173565b90565b61019c905461017e565b90565b634e487b7160e01b5f52602260045260245ffd5b90600160028304921680156101d3575b60208310146101ce57565b61019f565b91607f16916101c3565b60209181520190565b5f5260205f2090565b905f9291805490610209610202836101b3565b80946101dd565b916001811690815f146102605750600114610224575b505050565b61023191929394506101e6565b915f925b81841061024857505001905f808061021f565b60018160209295939554848601520191019290610235565b92949550505060ff19168252151560200201905f808061021f565b90610285916101ef565b90565b601f801991011690565b634e487b7160e01b5f52604160045260245ffd5b906102b090610288565b810190811067ffffffffffffffff8211176102ca57604052565b610292565b906102ef6102e8926102df6100bf565b9384809261027b565b03836102a6565b565b60ff1690565b6103036103089161014a565b6102f1565b90565b61031590546102f7565b90565b60081c90565b61032a61032f91610318565b6102f1565b90565b61033c905461031e565b90565b60101c90565b6103516103569161033f565b6102f1565b90565b6103639054610345565b90565b610371906003610134565b61037c5f8201610166565b9161038960018301610166565b9161039660028201610192565b916103a3600383016102cf565b916103b0600482016102cf565b916103bd600583016102cf565b916103ca60068201610166565b916103d760078301610166565b916103e460088201610166565b916103f160098301610166565b916103fe600a820161030b565b91610416600a61040f818501610332565b9301610359565b90565b610422906100d1565b9052565b60018060a01b031690565b61043a90610426565b90565b61044690610431565b9052565b5190565b60209181520190565b90825f9392825e0152565b61048161048a60209361048f936104788161044a565b9384809361044e565b95869101610457565b610288565b0190565b151590565b6104a190610493565b9052565b9a98969d9c9b99979594939290916101a08c01925f8d016104c591610419565b60208c016104d291610419565b60408b016104df9161043d565b89810360608b01526104f091610462565b88810360808a015261050191610462565b87810360a089015261051291610462565b9860c0870161052091610419565b60e0860161052d91610419565b610100850161053b91610419565b610120840161054991610419565b610140830161055791610498565b610160820161056591610498565b6101800161057291610498565b565b346105b4576105b061058f61058a3660046100f7565b610366565b996105a79d9b9d9991999892989793979694966100bf565b9d8e9d8e6104a5565b0390f35b6100c5565b6105c2906100d1565b9052565b6105cf90610426565b90565b6105db906105c6565b9052565b6105e890610493565b9052565b90606080610632936106045f8201515f8601906105b9565b610616602082015160208601906105d2565b610628604082015160408601906105b9565b01519101906105df565b565b9190610647905f608085019401906105ec565b565b346106795761067561066461065f3660046100f7565b610d39565b61066c6100bf565b91829182610634565b0390f35b6100c5565b5f0190565b346106b15761069b6106963660046100f7565b610fb2565b6106a36100bf565b806106ad8161067e565b0390f35b6100c5565b6106bf816105c6565b036106c657565b5f80fd5b905035906106d7826106b6565b565b919060408382031261070157806106f56106fe925f86016100e8565b936020016106ca565b90565b6100c9565b9190610719905f60208501940190610498565b565b3461074c576107486107376107313660046106d9565b9061127f565b61073f6100bf565b91829182610706565b0390f35b6100c5565b5f91031261075b57565b6100c9565b3461078e57610770366004610751565b6107786113ba565b6107806100bf565b8061078a8161067e565b0390f35b6100c5565b9061079d90610118565b5f5260205260405f2090565b60018060a01b031690565b6107c06107c59161014a565b6107a9565b90565b6107d290546107b4565b90565b6107e0906002610793565b906107ec5f8301610166565b916107f9600182016107c8565b91610812600361080b60028501610166565b930161030b565b90565b61081e906105c6565b9052565b61085761085e9461084d606094989795610843608086019a5f870190610419565b6020850190610815565b6040830190610419565b0190610498565b565b346108945761089061087b6108763660046100f7565b6107d5565b906108879492946100bf565b94859485610822565b0390f35b6100c5565b6108ac6108a73660046100f7565b6114a8565b6108b46100bf565b806108be8161067e565b0390f35b5f80fd5b5f80fd5b5f80fd5b909182601f830112156109085781359167ffffffffffffffff83116109035760200192600183028401116108fe57565b6108ca565b6108c6565b6108c2565b9160c0838303126109ba57610924825f85016100e8565b92602081013567ffffffffffffffff81116109b557836109459183016108ce565b929093604083013567ffffffffffffffff81116109b057816109689185016108ce565b92909360608101359167ffffffffffffffff83116109ab5761098f846109a89484016108ce565b93909461099f81608086016100e8565b9360a0016100e8565b90565b6100cd565b6100cd565b6100cd565b6100c9565b346109f7576109e16109d236600461090d565b97969096959195949294611a4e565b6109e96100bf565b806109f38161067e565b0390f35b6100c5565b610a0590610431565b9052565b610a28610a31602093610a3693610a1f8161044a565b938480936101dd565b95869101610457565b610288565b0190565b90610b3a9061018080610abb610aa9610a976101a08601610a615f8a01515f8901906105b9565b610a7360208a015160208901906105b9565b610a8560408a015160408901906109fc565b60608901518782036060890152610a09565b60808801518682036080880152610a09565b60a087015185820360a0870152610a09565b94610ace60c082015160c08601906105b9565b610ae060e082015160e08601906105b9565b610af46101008201516101008601906105b9565b610b086101208201516101208601906105b9565b610b1c6101408201516101408601906105df565b610b306101608201516101608601906105df565b01519101906105df565b90565b610b529160208201915f818403910152610a3a565b90565b34610b8557610b81610b70610b6b3660046100f7565b611ee6565b610b786100bf565b91829182610b3d565b0390f35b6100c5565b610b9381610493565b03610b9a57565b5f80fd5b90503590610bab82610b8a565b565b9190604083820312610bd55780610bc9610bd2925f86016100e8565b93602001610b9e565b90565b6100c9565b34610c0957610bf3610bed366004610bad565b90611f6b565b610bfb6100bf565b80610c058161067e565b0390f35b6100c5565b90610c21610c1a6100bf565b92836102a6565b565b610c2d6080610c0e565b90565b5f90565b5f90565b5f90565b610c44610c23565b90602080808085610c53610c30565b815201610c5e610c34565b815201610c69610c30565b815201610c74610c38565b81525050565b610c82610c3c565b90565b9190610c98905f60208501940190610419565b565b90610ca4906100d1565b9052565b90610cb2906105c6565b9052565b90610cc090610493565b9052565b90610d2b610d226003610cd5610c23565b94610cec610ce45f8301610166565b5f8801610c9a565b610d04610cfb600183016107c8565b60208801610ca8565b610d1c610d1360028301610166565b60408801610c9a565b0161030b565b60608401610cb6565b565b610d3690610cc4565b90565b610d41610c7a565b50610d62610d5c6003610d5660028590610793565b0161030b565b15610493565b610d7c57610d74610d79916002610793565b610d2d565b90565b610d97905f9182916302ad881560e41b835260048301610c85565b0390fd5b90565b90565b916020610dc2929493610dbb60408201965f830190610419565b0190610419565b565b60081b90565b90610dd761ff0091610dc4565b9181191691161790565b610dea90610493565b90565b90565b90610e05610e00610e0c92610de1565b610ded565b8254610dca565b9055565b5f1b90565b90610e2160ff91610e10565b9181191691161790565b90610e40610e3b610e4792610de1565b610ded565b8254610e15565b9055565b90565b610e62610e5d610e6792610e4b565b610115565b6100d1565b90565b90610e765f1991610e10565b9181191691161790565b90565b90610e98610e93610e9f92610118565b610e80565b8254610e6a565b9055565b610eb7610eb2610ebc92610426565b610115565b610426565b90565b610ec890610ea3565b90565b610ed490610ebf565b90565b905090565b610ee75f8092610ed7565b0190565b610ef490610edc565b90565b67ffffffffffffffff8111610f1557610f11602091610288565b0190565b610292565b90610f2c610f2783610ef7565b610c0e565b918252565b606090565b3d5f14610f5157610f463d610f1a565b903d5f602084013e5b565b610f59610f31565b90610f4f565b610f6890610ecb565b9052565b916020610f8d929493610f8660408201965f830190610f5f565b0190610419565b565b916020610fb0929493610fa960408201965f830190610498565b0190610498565b565b610fc6610fc160038390610134565b610d9b565b610fe5610fe06002610fda60018501610166565b90610793565b610d9e565b91610ffb610ff5600a8401610359565b15610493565b6112245761101461100e6003850161030b565b15610493565b6111fa574261103661103061102b60098601610166565b6100d1565b916100d1565b106111ce57611047600a830161030b565b6111af5761105760078301610166565b61107461106e61106960088601610166565b6100d1565b916100d1565b119161108383600a8301610df0565b6110916001600a8301610e2b565b61109a5f610e4e565b905f9484611161575b50846110f2575b505090916110d87f75bba44f29e4b104d366019dfced0c087f66d06097db8b746faab6ee4407029792610118565b926110ed6110e46100bf565b92839283610f8f565b0390a2565b6111325f8061110b61110660028601610192565b610ecb565b856111146100bf565b908161111f81610eeb565b03925af161112b610f36565b5015610493565b156110aa5760026111439101610192565b61115d5f928392630e21dcbb60e11b845260048401610f6c565b0390fd5b915061116f60028301610166565b918261118361117d5f610e4e565b916100d1565b1161118e575b6110a3565b6111a6919550600261119f5f610e4e565b9101610e83565b6001935f611189565b6111ca905f918291632776407360e11b835260048301610c85565b0390fd5b60096111db919201610166565b906111f65f92839263408b57fb60e01b845260048401610da1565b0390fd5b61122061120960018401610166565b5f9182916302ad881560e41b835260048301610c85565b0390fd5b61123f905f91829163428d06a960e01b835260048301610c85565b0390fd5b5f90565b9061125190610118565b5f5260205260405f2090565b61126690610ebf565b90565b906112739061125d565b5f5260205260405f2090565b6112a49161129a61129f92611292611243565b506004611247565b611269565b61030b565b90565b634e487b7160e01b5f52601160045260245ffd5b6112c4906100d1565b5f1981146112d25760010190565b6112a7565b6112e16080610c0e565b90565b6112ee90516100d1565b90565b6112fb90516105c6565b90565b9061130f60018060a01b0391610e10565b9181191691161790565b90565b9061133161132c6113389261125d565b611319565b82546112fe565b9055565b6113469051610493565b90565b906113a6606060036113ac9461136c5f82016113665f88016112e4565b90610e83565b6113856001820161137f602088016112f1565b9061131c565b61139e60028201611398604088016112e4565b90610e83565b01920161133c565b90610e2b565b565b906113b891611349565b565b6113d46113ce6113c95f610166565b6112bb565b5f610e83565b6113dd5f610166565b611437816114263361141d6114145f61140f6001946114066113fd6112d7565b985f8a01610c9a565b60208801610ca8565b610e4e565b60408501610c9a565b60608301610cb6565b61143260028490610793565b6113ae565b3361146b6114657f65fc0eb45954044fb55e1b01344d5d72fbfdf88e732d955f73bb7fb2bcc131e993610118565b9161125d565b916114746100bf565b8061147e8161067e565b0390a3565b611492611498919392936100d1565b926100d1565b82018092116114a357565b6112a7565b6114bc6114b760028390610793565b610d9e565b6114d16114cb6003830161030b565b15610493565b611546576114f6906114f06002349201916114eb83610166565b611483565b90610e83565b33349161154161152f6115297fe030e47e27825a2ad1b19e4cf2e70bfbfb3124af275c7727a82b114ba7b29a8593610118565b9361125d565b936115386100bf565b91829182610c85565b0390a3565b611561825f9182916302ad881560e41b835260048301610c85565b0390fd5b61157961157461157e92610e4b565b610115565b610426565b90565b61158a90611565565b90565b61159690610ea3565b90565b6115a29061158d565b90565b6115b06101a0610c0e565b90565b906115bd90610431565b9052565b5f80fd5b67ffffffffffffffff81116115e3576115df602091610288565b0190565b610292565b90825f939282370152565b90929192611608611603826115c5565b610c0e565b9381855260208501908284011161162457611622926115e8565b565b6115c1565b6116349136916115f3565b90565b52565b6116449051610431565b90565b6116509061158d565b90565b90565b9061166b61166661167292611647565b611653565b82546112fe565b9055565b5190565b601f602091010490565b1b90565b919060086116a391029161169d5f1984611684565b92611684565b9181191691161790565b91906116c36116be6116cb93610118565b610e80565b908354611688565b9055565b5f90565b6116e5916116df6116cf565b916116ad565b565b5b8181106116f3575050565b806117005f6001936116d3565b016116e8565b9190601f8111611716575b505050565b611722611747936101e6565b90602061172e8461167a565b8301931061174f575b6117409061167a565b01906116e7565b5f8080611711565b915061174081929050611737565b1c90565b90611771905f199060080261175d565b191690565b8161178091611761565b906002021790565b906117928161044a565b9067ffffffffffffffff8211611852576117b6826117b085546101b3565b85611706565b602090601f83116001146117ea579180916117d9935f926117de575b5050611776565b90555b565b90915001515f806117d2565b601f198316916117f9856101e6565b925f5b81811061183a57509160029391856001969410611820575b505050020190556117dc565b611830910151601f841690611761565b90555f8080611814565b919360206001819287870151815501950192016117fc565b610292565b9061186191611788565b565b60101b90565b9061187762ff000091611863565b9181191691161790565b9061189661189161189d92610de1565b610ded565b8254611869565b9055565b906119e2610180600a6119e8946118c55f82016118bf5f88016112e4565b90610e83565b6118de600182016118d8602088016112e4565b90610e83565b6118f7600282016118f16040880161163a565b90611656565b6119106003820161190a60608801611676565b90611857565b6119296004820161192360808801611676565b90611857565b6119426005820161193c60a08801611676565b90611857565b61195b6006820161195560c088016112e4565b90610e83565b6119746007820161196e60e088016112e4565b90610e83565b61198e6008820161198861010088016112e4565b90610e83565b6119a8600982016119a261012088016112e4565b90610e83565b6119c18282016119bb610140880161133c565b90610e2b565b6119da8282016119d4610160880161133c565b90610df0565b01920161133c565b90611881565b565b906119f4916118a1565b565b9190611a1081611a0981611a159561044e565b80956115e8565b610288565b0190565b611a45611a3a604093611a4c9698979560608501918583035f8701526119f6565b966020830190610419565b0190610419565b565b949096959792939197611a77611a716003611a6b60028a90610793565b0161030b565b15610493565b611caa5783611a8e611a885f610e4e565b916100d1565b14611c8e5733611aae611aa8611aa35f611581565b6105c6565b916105c6565b14611c7257611abd6001610166565b611ac6906112bb565b611ad1906001610e83565b611adb6001610166565b934290611ae791611483565b948493879333611af690611599565b938b928d94909291908c935f955f978d995f9b611b116115a5565b809e5f820190611b2091610c9a565b60200190611b2d91610c9a565b60408d0190611b3b916115b3565b611b4491611629565b60608b0190611b5291611637565b611b5b91611629565b6080890190611b6991611637565b611b7291611629565b60a0870190611b8091611637565b60c0860190611b8e91610c9a565b611b9790610e4e565b60e0850190611ba591610c9a565b611bae90610e4e565b610100840190611bbd91610c9a565b610120830190611bcc91610c9a565b610140820190611bdb91610cb6565b61016081015f611bea91610cb6565b61018081016001611bfa91610cb6565b600382611c0691610134565b90611c10916119ea565b91923394959091957f91cd141dc574dfee2c311e9baca814fbcbf5c7fe4daf2819c3224f1fd6be4e6393611c4390610118565b94611c4d90610118565b95611c579061125d565b96611c606100bf565b938493611c6d9385611a19565b0390a4565b5f63d92e233d60e01b815280611c8a6004820161067e565b0390fd5b5f637616640160e01b815280611ca66004820161067e565b0390fd5b611cc5865f9182916302ad881560e41b835260048301610c85565b0390fd5b611cd46101a0610c0e565b90565b5f90565b606090565b602090818080808080808080808080611cf7611cc9565b9d8e611d01610c30565b815201611d0c610c30565b815201611d17611cd7565b815201611d22611cdb565b815201611d2d611cdb565b815201611d38611cdb565b815201611d43610c30565b815201611d4e610c30565b815201611d59610c30565b815201611d64610c30565b815201611d6f610c38565b815201611d7a610c38565b815201611d85610c38565b81525050565b611d93611ce0565b90565b90611ed8611ece600a611da7611cc9565b94611dbe611db65f8301610166565b5f8801610c9a565b611dd6611dcd60018301610166565b60208801610c9a565b611dee611de560028301610192565b604088016115b3565b611e06611dfd600383016102cf565b60608801611637565b611e1e611e15600483016102cf565b60808801611637565b611e36611e2d600583016102cf565b60a08801611637565b611e4e611e4560068301610166565b60c08801610c9a565b611e66611e5d60078301610166565b60e08801610c9a565b611e7f611e7560088301610166565b6101008801610c9a565b611e98611e8e60098301610166565b6101208801610c9a565b611eb0611ea683830161030b565b6101408801610cb6565b611ec8611ebe838301610332565b6101608801610cb6565b01610359565b6101808401610cb6565b565b611ee390611d96565b90565b611eee611d8b565b50611f0f611f09600a611f0360038590610134565b01610359565b15610493565b611f2957611f21611f26916003610134565b611eda565b90565b611f44905f91829163428d06a960e01b835260048301610c85565b0390fd5b916020611f69929493611f6260408201965f830190610419565b0190610815565b565b611f7f611f7a60038390610134565b610d9b565b611f94611f8e600a8301610359565b15610493565b6120d85742611fb6611fb0611fab60098501610166565b6100d1565b916100d1565b10156120b957611fda611fd5611fce60048590611247565b3390611269565b61030b565b61209857825f146120755760076120039101611ffd611ff882610166565b6112bb565b90610e83565b5b612024600161201f61201860048590611247565b3390611269565b610e2b565b9033909161207061205e6120587ff2913dbe661ee2acc4a046d8fbcdc792373bda34c41c6086484b5345e5785e5f93610118565b9361125d565b936120676100bf565b91829182610706565b0390a3565b6008612093910161208d61208882610166565b6112bb565b90610e83565b612004565b5033906120b55f9283926304f9da6360e01b845260048401611f48565b0390fd5b6120d4825f91829163bfb22adf60e01b835260048301610c85565b0390fd5b6120f3825f91829163428d06a960e01b835260048301610c85565b0390fdfea2646970667358221220d8a05385f3587729424ed7b30eaa6dd27653374183fbb9fc3eb7de8c3b36a0c764736f6c634300081c0033","linkReferences":{}},"methodIdentifiers":{"createPool()":"9a06b113","createProposal(uint256,string,string,string,uint256,uint256)":"bc2a0328","deposit(uint256)":"b6b55f25","executeProposal(uint256)":"0d61b519","getHasVoted(uint256,address)":"6a0c5723","getPool(uint256)":"068bcd8d","getProposal(uint256)":"c7f758a8","pools(uint256)":"ac4afa38","proposals(uint256)":"013cf08b","vote(uint256,bool)":"c9d27afe"},"id":0}